:020000040800F2
:1000000000040020910100083B75000893010008DE
:100010009301000893010008930100089301000870
:100020009301000893010008930100089301000860
:100030009301000893010008930100089301000850
:100040009301000893010008930100089301000840
:100050009301000893010008930100089301000830
:10006000930100089D82000895800008B580000873
:1000700093010008930100089301000831870008EC
:100080009D87000893010008930100089301000870
:10009000930100089301000893010008FD83000804
:1000A00093010008930100089301000893010008E0
:1000B000930100089301000893010008ED870008F0
:1000C00072B6244880F30888234880F30988022008
:1000D00080F31488BFF36F8F06F06AFF06F050FBC1
:1000E0001E481F491B4A914202DA08600431FAE7B0
:1000F0001C49194A914202DA08600431FAE71A49A8
:100100001A4A1B4B9A4204DA086810600431043220
:10011000F8E700201749184A914202DA08600431D2
:10012000FAE706F049FF06F044FF144C144DAC42C8
:1001300003DA216888470434F9E702F077F9114CB3
:10014000114DAC4203DA216888470434F9E70F49BE
:100150000847000000040020000C002055555555AC
:10016000000000200004002050990008000C00202E
:10017000D8110020D81100206C2A0020C0000008EF
:10018000C0000008C0000008C0000008B56F0008EB
:1001900096E700F000F8FEE7F0B544464D465646B7
:1001A0005F46F0B46B46CB60C3689D46F0BCA0468A
:1001B000A946B246BB46F0BD62B6281CA047002047
:1001C00007F05EF9FEE707F0C1F8024A024B136040
:1001D000FEE7C04604ED00E00000008002B4714676
:1001E00049084900095649008E4402BC7047C04680
:1001F00002B4714649084900095C49008E4402BCBA
:100200007047C04603B47146490840004900095A86
:1002100049008E4403BC7047002934D001230022DA
:1002200010B488422CD301242407A14204D2814275
:1002300002D209011B01F8E7E400A14204D2814285
:1002400002D249005B00F8E7884201D3401A1A4302
:100250004C08A04202D3001B5C0822438C08A04239
:1002600002D3001B9C082243CC08A04202D3001BEF
:10027000DC082243002803D01B0901D00909E3E769
:10028000100010BC704701B5002000F05FF802BDFF
:100290000029F8D003B5FFF7C1FF0EBC4243891A0D
:1002A0001847C046002941D010B404004C40A44671
:1002B00001230022002900D54942002800D54042F0
:1002C00088422CD301242407A14204D2814202D2C5
:1002D00009011B01F8E7E400A14204D2814202D2E5
:1002E00049005B00F8E7884201D3401A1A434C08E2
:1002F000A04202D3001B5C0822438C08A04202D318
:10030000001B9C082243CC08A04202D3001BDC083F
:100310002243002803D01B0901D00909E3E710009C
:100320006446002C00D5404210BC704701B5002047
:1003300000F00CF802BDC0460029F7D003B5FFF766
:10034000B3FF0EBC4243891A1847C0467047C046E7
:10035000002B11D1002A0FD1002900D1002802D092
:100360000021C943080007B4024802A140180290C6
:1003700003BDC046D9FFFFFF03B4684601B502982C
:1003800008F068FD019B9E4602B00CBC7047C04659
:10039000D0400B00D1409C46203AD34018435242F3
:1003A00063469340184370479140030090409C4639
:1003B000203A9340194352426346D3401943704751
:1003C00010B5002903D100F007F8203002E0080042
:1003D00000F002F810BDC0461C2101231B04984206
:1003E00001D3000C10391B0A984201D3000A0839C6
:1003F0001B09984201D30009043902A2105C40187D
:100400007047C04604030202010101010000000020
:100410000000000070B5334B6421187804F00CFC28
:10042000314C206800283CD005F0C8FE2F4B984284
:1004300037D900232360802490206400012221000A
:10044000C00507F038FF90232022FA26DB051C8325
:10045000274BFD3C1A83760005F06CFE254D286085
:10046000286805F0ABFEB04224D305F063FE286097
:10047000286805F0A3FEB04228D3013CE4B2002C6A
:10048000EAD11D4B0C20FF341C7004F0C0F8202072
:1004900004F0B4F930222100AA2004F008F904F095
:1004A00071F8164B00221968132900D84A1C6420E1
:1004B0001A6070BDC8221000110002F0AFFF02F0F8
:1004C0009DFFFA20800006F0E0FFC9E7002210003F
:1004D000110002F0A3FF02F091FFFA20800006F065
:1004E000D4FFC5E7E8110020E4110020B80B00009C
:1004F00000040048E0110020CC270020D811002083
:100500008020022210B5034B800418601A7101F09C
:100510003FFB10BDC427002010B501F0B6FB05F06D
:10052000C3FE10BD13B501F0B1FB01F02CFB2E4C46
:100530002E4B2060013018706A461C236946D37127
:100540008A2048330122073105F0D2FE6378022B5E
:1005500010D0032B02D0012B0ED0122324494B7054
:10056000A0780138062839D8FFF742FE3B08232738
:100570002A2D30000123F1E70023EFE700231A00C2
:10058000FF2008718B70CA70E3788A201B014B71C1
:10059000332322790132534309228B71642305F0FE
:1005A000A7FE00221349642004F03AFB124B187096
:1005B00013BDFF231A000020E3E7FF230022DFE73B
:1005C0000023FF22DCE7FF23FF2205E0012B01D1FE
:1005D00012334B70FF2300221800D2E7FF230022C2
:1005E000E9E70023F0E7C046C4270020DC11002023
:1005F000140D002015040008E811002070B5040057
:100600000D0000F0D5F8002810D0644BE418052C3C
:100610000DD820006B79FFF7EBFD030D38AD5A982C
:100620005F4C002B04D005F085FD2060002070BDDC
:100630002360FBE7002BF9D004F04AF8594C020084
:100640002078013805281CD8FF21FFF7D1FD0310C1
:1006500012141618152004F02AF8534B22781A7039
:10066000186801F095FA237801332370DEE72B2018
:10067000F1E75520EFE78020EDE7AA20EBE7BF2068
:10068000E9E70020FF212070E5E7002BCED0464CA3
:1006900063780133DBB2032B00D900236370206839
:1006A00001F076FA6278414B022A0CD0032A02D07C
:1006B000012A0AD100225A703C49642309228A2067
:1006C00005F016FEB2E70122F5E71222F3E7002B50
:1006D000ACD0354CA3780133DBB2072B00D9002313
:1006E000A370206801F054FA304B5A78132A01D1D4
:1006F000123A5A70A07800210138FF22062821D82A
:10070000FFF776FD04080D1C111416009970DA70BD
:100710001971D1E7FF229970D9701A71CCE79A70DC
:10072000DA700022F9E79970DA70F6E79A70FBE761
:100730005A78012A01D112325A70FF2200219A7090
:10074000D970EAE79A70D970E2E7002B00D16DE723
:10075000154C23790133DBB2032B00D90023206829
:10076000237101F015FA33232279104901325343E2
:100770008B71A2E7002B00D158E70B4CE3780133D3
:10078000DBB2042B00D90023E370206801F000FAEB
:10079000E37806491B014B718FE7C046FA81FFFFE2
:1007A000E4110020DC110020C4270020140D0020DB
:1007B0000300E3280DD00B4A0120934203D14B796B
:1007C000002B01D100207047074A13784340137073
:1007D000F8E7064B01201B78002BF4D0024B1B7866
:1007E0005840F0E7057E0000E91100201D0D0020B3
:1007F00010B505F0B1FA800715D5C8231A00190005
:100800001E2002F003FE0F4B1B78002B12D00E4B64
:100810001B78002B0ED0C8231A0019003B2002F0D1
:10082000F5FD012010BD04F021F8011EEBD10300FD
:100830000200E5E704F01AF8011EF2D103000200FD
:10084000ECE7C046E91100201D0D002010B50C009A
:10085000002807D10430002900D0033800F0B7FC8D
:10086000014B1C70012010BD1D0D002010B50400AF
:1008700000F011F9084B022808D17F211A780A40AC
:100880001A70188801F079F9200010BD80221978BB
:1008900052420A43F4E7C046CE27002010B51300A9
:1008A00004000120032C0CD804290AD80E2A08D8E9
:1008B0000F224A434B21614352180248D21852007A
:1008C000105A10BD808F00080120704710B5FFF747
:1008D000FBFF10BD01207047704710B5FFF7FCFF0C
:1008E00010BD000013B5019110496B4609780090C6
:1008F000002915D15B79002B0DD0002A0BD000F018
:100900003BFD04000100009800F00EFD200000995E
:1009100001F06EFB16BD009800F01AFD0400F5E72B
:10092000009800F029FD0099F2E7C046F011002080
:1009300010B504000A000188408800040843A1881B
:10094000FFF7D0FF10BD10B504000121FFF7F0FF45
:100950002100FFF7BBFF10BD10B504000021FFF719
:10096000E7FF2100FFF7B9FF10BD0120704710B568
:10097000FFF7FBFF10BD000010B5040000F0DAFB2C
:100980002000FFF7F4FF024806F07FFD10BDC046CF
:10099000A861000010B50120FFF7EEFF05F02EFC66
:1009A00010BD10B50020FFF7E7FF05F037FC10BDC4
:1009B00070B501210500FFF7BBFF2900040005F019
:1009C00075F8002842D029002000FFF717FE002804
:1009D0003CD02900200004F075FF002836D0290003
:1009E000200004F0D1FA002830D02900200004F0C3
:1009F000A1FA00282AD02900200003F08DFF00284A
:100A000024D02900200004F0B1FF00281ED06B790B
:100A1000002B0CD0144B9C421FD00CD8134B9C4283
:100A200018D0134B9C4213D0033B9C420CD028009F
:100A3000FFF750FF0BE00F4B9C4211D00E4B9C4236
:100A4000F5D101F05BF8F2E7FFF7A4FF002070BDDD
:100A500001F06AF8FFF7A5FFF8E701F05BF8E6E7B9
:100A600001F05DF8E3E7C0465A7C0000017C00001D
:100A7000037C00005B7C00005C7C000010B505F08E
:100A800002FB10BD10B500F027F8002003F028FD90
:100A900005F0FEFA10BD0423020901D11300020083
:100AA000910802D00A000233DBB252089818C0B293
:100AB000704701207047704770B5051CFFF7F9FFBC
:100AC000041E02D0281CFFF7F6FF200070BD7047FF
:100AD00010B5FFF7F1FF10BD10B505F033F9FFF7C2
:100AE000F7FF10BD10B505F02DF9074B04001A787B
:100AF000824207D0187005F01DFB044B18602000DF
:100B0000FFF7E6FF10BDC046EA110020EC110020FF
:100B100030B50B0A85B0DBB26C4600900191002B1A
:100B200001D000F0E5FE00236A46D381009B02ADB0
:100B30000293A388AB80DBB2002B05D102986968D1
:100B400000F036FE05B030BD2800FFF7FCFE00289F
:100B5000F4D1F7E7037910B5012B02D1008800F03A
:100B60002DFC10BD10B5002904D004F063FB04F087
:100B70002BFC10BD04F0B4FBF9E7000010B5041E17
:100B800011D0031FDBB2A02B0ED805F05FF90028AF
:100B900004D0200005F0E2F900F044FF200005F049
:100BA000C1F900F03FFF10BD03002033DBB2072B7B
:100BB00007D80723034001209840C0B200F072FE1E
:100BC000EFE703005B33DBB2022B04D8243CA0B276
:100BD00005F0E8F8E7E703005833DBB21A2B05D835
:100BE000074A5B00985A05F0F5F8DCE70300333359
:100BF000DBB2122BD7D804F01DFB04F0E5FBD2E7E3
:100C0000D891000810B5002807D0031FDBB2A02B35
:100C100004D805F0A3F900F005FF10BD0300203350
:100C2000DBB2072B07D80723034001209840C0B24E
:100C300000F040FEEFE703005B33DBB2022B03D88A
:100C4000002005F0AFF8E8E703005833DBB21A2BB9
:100C500003D8002005F0BEF8DFE703003333DBB232
:100C6000122BDAD804F03CFB04F0AEFBD5E7000011
:100C700070B504000D00FFF781FF0120002D0ED09C
:100C800000230A4A2800002108F0C2F80023084A7D
:100C900080185941FA2200239200FFF759FB06F011
:100CA000F4FB2000FFF7AEFF70BDC046A086010038
:100CB000E7030000002110B5392800D15031FFF7BB
:100CC000D7FF10BD10B5002803D000F0EBFD00F0F9
:100CD000A9FE10BD10B5002803D000F0EBFD00F018
:100CE000A1FE10BDF0B585B087790C1C4579029046
:100CF00000F0C8FD23043F0901900393002828D089
:100D00000195002D25D023041B0E0F2219009143BD
:100D100040290FD0E1B20A0000202032D2B2019067
:100D2000072A16D91F229343202B03D1012910D95A
:100D300087420ED00022AA4B01925B785B0708D550
:100D4000022000F0ABFE00F09DFD01234340DBB22A
:100D500001932304180F0B283ED8FFF753FA0C0019
:100D60000C0056005600B300C8003D003D00CD0009
:100D70002D014301430126052304360F1B0E0F2BC3
:100D800000D93601E4B2002D12D0002E0BD0230082
:100D90002033DBB23000072B01D9002C05D100F045
:100DA00081FD00F03FFE200050E000F091FDF8E7EB
:100DB0002000FFF727FF002E0ED023002033DBB2E8
:100DC0003000072B01D9002C02D100F073FD01E0A7
:100DD00000F086FD00F026FE019B002B13D000F0F2
:100DE00049FD012302001A4018420CD1029B5A719E
:100DF00000F03AFD00F028FA029800F063F900F0E4
:100E000033FD00F02DFA05B0F0BD0F2223042605B6
:100E10001B0E360F9343202B00D03601E4B2002C7A
:100E200006D0012C36D0002D3FD0002F1CD0BAE7C1
:100E30006B4B5B785B0713D4002D0AD0002E04D0D7
:100E4000300000F02FFD00F0EDFD0020FFF796FED2
:100E5000C2E72800FFF7D6FE002EBDD03000B4E771
:100E6000002D0BD0002F03D13000FFF72BFFB3E78D
:100E7000012FB1D1300000F05BFDADE7002FABD109
:100E80003000FFF727FF300000F060FD300000F079
:100E90003BFDA1E7002D02D0052F9DD8E4E7042FEC
:100EA0009AD83000FFF716FF96E7002FF9D00120FF
:100EB000392C01D1FA20400106F0E7FA2000FFF7B3
:100EC000A1FE89E72005800F0AD0012800D083E722
:100ED0000020854201D0A005800D04F07BFF7BE758
:100EE000002D01D0A005800D04F05CFF74E72900FF
:100EF000E0B2FFF737FE6FE723049B019B0F2BD176
:100F0000002D1BD1102123065B0F9B002207DBB2B3
:100F1000120F9A400800D2B22040214203D00F2085
:100F20009840C043C0B22405A40F1043022C0DD03A
:100F3000032C0ED0012C06D000F058F904F002FF6B
:100F4000FFF7C6FD48E700F047F9F7E700F058F96A
:100F5000F4E700F03CF9F1E7A3059B0FDAB2002DAE
:100F60001ED0DB07EAD5102123065B0F9B0022076A
:100F7000DBB2120F9A400800D2B22040214203D0C7
:100F80000F209840C043C0B22405A40F1043022C88
:100F90000CD0032C0DD0012C05D000F083F9CDE747
:100FA000012ACBD9DFE700F073F9C7E700F084F935
:100FB000C4E700F035F9C1E7E6B22405240F002D9F
:100FC00006D0200000F040F93000FFF77BFEB5E7C7
:100FD0003000FFF77FFE200000F042F9AEE7C04688
:100FE000CE270020E6B23000F03804283CD8FFF7C6
:100FF000FFF803240F162000002D06D0042F9DD8E3
:10100000E004C00E00F038F998E7052F96D8F7E70E
:10101000E004C00E002DDFD100F016F98EE7002DA0
:1010200004D0E004C00E00F008F987E700F000F9F2
:1010300084E71B4B5B785B0704D4E004C00E002DF3
:10104000CAD0E9E7002D05D0E0040321C00E00F06E
:1010500003FD73E7012000F021FD012F00D86DE7AB
:10106000022000F01BFD69E7002D08D0002F03D0FF
:101070003000FFF783FD61E7E004C00ECCE7002FEE
:101080000AD00120392E01D1FA20400106F0FDF9E5
:101090003000FFF7B7FD51E7E004C00E9CE7C04603
:1010A000CE27002070B504002188407900F090F927
:1010B000051C00F00BF900F089F8291C2000FFF74F
:1010C00011FE70BD037910B50400002B11D0FFF79D
:1010D0006FFC00280ED100F0D5FB002809D0637901
:1010E000002B06D0074B5B785B0702D5022000F08F
:1010F000D5FC10BD2000FFF7D5FF2000FFF72CFC2A
:10110000F7E7C046CE27002010B5002004F04AFEC5
:10111000002004F05FFE00F0EBFB00F083FC04F025
:101120006DF904F051F910BD10B504F033FFFFF76D
:10113000EBFF10BD10B500F0C5FBFFF7F5FF10BDCC
:10114000C2B20004000F062818D00F2306280ED8BC
:101150000E3003400020012B08D80120F02A05D0D2
:1011600007D80020E72393424041C0B270470630C1
:10117000EFE7F43A100043425841F6E71000F13827
:1011800043425841E721002391425B411843EDE778
:1011900003000279002010B5824204D0188800F0C4
:1011A0000DF9FFF7CDFF10BD82B002B0704782B0DD
:1011B00002B0704710B5FFF759FB10BD10B5FFF72F
:1011C000F9FF014B187010BD10120020704710B5C8
:1011D000FFF7F4FF10BD000010B5034B1B78184358
:1011E000FFF7ECFF10BDC0461012002010B5034BF6
:1011F0001B781840FFF7E2FF10BDC0461012002018
:1012000010B5034B1B785840FFF7D8FF10BDC04600
:1012100010120020704710B5FFF7FCFF10BD000052
:1012200010B5FFF7F8FF014B187010BD0F1200202A
:1012300010B50020FFF7F4FF10BD0123834010B567
:10124000D8B2FFF7EDFF10BD0123834010B5034A6C
:1012500010781843C0B2FFF7E3FF10BD0F12002053
:101260000123834010B5034A10789843FFF7D8FF55
:1012700010BDC0460F1200200123834010B5034A61
:1012800010785840C0B2FFF7CBFF10BD0F120020FE
:1012900010B5034B1B781843FFF7C2FF10BDC046C3
:1012A0000F12002010B5034B1B781840FFF7B8FF52
:1012B00010BDC0460F12002010B5034B1B785840DC
:1012C000FFF7AEFF10BDC0460F120020704703238A
:1012D00070B50126CC086343D218072335001940A6
:1012E0008D400021EDB20300CB40545C33405B42A3
:1012F00063402B405C40545401310329F3D170BD4D
:1013000030B50724032300220440C00843430125CD
:101310001000C9188B5CE3402B4093400132184306
:10132000C0B2032AF6D130BD13B584B201AB188028
:10133000240A0800042C08D81B780E2B05D80F218E
:101340006143024A5918FFF7C2FF13BDF111002093
:1013500007B582B201AB1880120A0020042A08D80F
:101360001B780E2B05D80F30504302491818FFF791
:10137000C7FF0EBDF1110020F7B5032401270D4A68
:101380000D4B12781B7801AE1A4330800092009BFF
:1013900023413B4204D1013CF9D200252800FEBD87
:1013A000E5B22800316800F033FE80B20128F2D0A7
:1013B000F4E7C0460F1200201012002007B501AB61
:1013C00018800198FFF7D8FF019900F021FE0EBDAB
:1013D00013B501AB19800E4B1B78002B03D001987D
:1013E000FFF7ECFF16BD00280CD00198FFF7C4FFF3
:1013F000040001000198FFF797FF2000019900F019
:1014000007FEEFE70198FFF7A3FF0400F5E7C046EA
:10141000F011002030B50400012005008D402900A6
:101420000500954098402A00030020000A43D1B2ED
:10143000984322408A4201D11C43E0B230BD0000F3
:1014400010B504001300044A10780A002100FFF7C9
:10145000E1FFFFF7E5FE10BD0F12002070B5072574
:101460000B4B1C780B4B1B78A34200D170BD0A4B71
:10147000E200D15A9B1858889A8800040843D988FA
:10148000013409041143FFF792FE2C40EAE7C046FD
:10149000111200201212002014120020064B10B569
:1014A00058881A88D988000410439A88090411437F
:1014B000FFF77DFE10BDC04654120020F8B51A4853
:1014C00083790F2B2BD84379002B28D0174B058815
:1014D0001A78174B46881C7807239C46154FA24262
:1014E0001DD0D300DB191979002919D01988A94218
:1014F00016D15979002913D15988891B89B2C72976
:101500000ED80F241021827922400A4382719A79E1
:10151000224011439971FFF7D5FDFFF79FFFF8BDFA
:10152000634601321A40DAE75412002011120020FB
:101530001212002014120020F7B50E4C0E4B247826
:101540001B7801940D4C019DAB4201D10020FEBDE2
:10155000DE00A5196F788F4205D1365D864202D133
:101560006D79954203D1072501332B40EBE701202C
:10157000EDE7C046121200201112002014120020C4
:10158000F0B5040087B002AF06220100380007F072
:10159000ECFC864D66792B792279002B18D1002A34
:1015A00000D1CEE0002E00D1F7E02000FFF7F0FDE3
:1015B000002800D1F1E008222100280007F0D5FC26
:1015C0002800FFF7C7FAFFF779FFFFF767FFB8E0DA
:1015D000638801936B79019900936B88CB1A00990A
:1015E0009BB2002900D1AEE0C72B00D986E0002ACB
:1015F00000D1A6E0AB792A8821880F2B54D89142DC
:1016000011D1002E4BD10F22134001321343AB7185
:10161000FFF744FF2800FFF755FDAB79A3710025C4
:10162000280007B0F0BD002E39D125786778320048
:1016300039002800FFF780FF280032003900FFF74B
:101640007BFF051EEBD10298FFF7B8FEC3B2000482
:101650000F21020F032A08D8012A0FD9000E0142D8
:1016600011D0A2790F2A0ED8DAE706320A40012AF1
:101670000ED92000FFF726FD009DD1E7000E0142A4
:1016800001D0002BCCD02033DBB2072BC8D9F0E738
:10169000EF2BC5D90F33DBB2022BC1D9E9E7012308
:1016A000AA791343AB71BAE791420BD1002E09D14D
:1016B000A3712000FFF706FD08222100280007F093
:1016C00054FC82E72000FFF763FD002865D0002E60
:1016D00063D0AB791F2B0BD92A8804A80280019A0A
:1016E00042802A798371027100224271FFF7EAFC7D
:1016F00008222100280007F038FC64E7AB790F2BA3
:101700000ED802987968FFF74FFD2800FFF7DAFC42
:1017100008220021280007F020FCFFF7BFFE7EE72B
:10172000002A0ED0298822889142CBD1002EC9D11F
:101730002000A371FFF7C6FC08223100280007F043
:101740000CFC01256CE7C72B2BD8002AF9D0002E02
:1017500023D02A8823889A4216D1AB79DA070DD490
:101760000F2B0BD90F21A3718B43F02BA1D0A379A1
:101770001A09013212010B40134399E70822210094
:10178000280007F0F2FBDCE72000FFF701FD00284E
:10179000AED10123AA791343AB712000FFF792FC6D
:1017A000CFE702987968FFF7FFFCB1E754120020F9
:1017B000F0B585B0009068466C460191FFF7E0FEF9
:1017C0002379071E244E254D0CD0002B03D0009802
:1017D0000199FFF7ECFC072728783378834222D160
:1017E00005B0F0BD02AA03CC03C2002BF3D0072240
:1017F00033785C1C14402A7894420AD01848DB00E5
:101800000822C01802A907F0B0FB3470FFF726FECB
:10181000E1E7FFF78FFC08223900124837702F707C
:1018200007F09BFBD7E70E4CC0000019FFF7A8FE9E
:101830000028D5D02B78DB001A5BE4186088E1889B
:10184000A3880004090419431043FFF7B0FC2B7868
:1018500001333B402B70BFE7121200201112002011
:101860001412002054120020014B1878C008704751
:1018700084120020024B1878072318407047C04696
:1018800084120020034B187807231840431E984108
:10189000C0B2704784120020014B18787047C046D0
:1018A000B0120020024B1A78104318707047C046DF
:1018B000B0120020024A1378834313707047C04669
:1018C000B01200200022014B1A707047B0120020A5
:1018D000024B1A78104318707047C046AF120020B0
:1018E000024A1378834313707047C046AF1200203A
:1018F0000022014B1A707047AF120020704710B5DC
:10190000FFF7FCFF10BD0000030010B5044A10787B
:10191000034203D098431070FFF7F1FF10BDC0469B
:1019200085120020704710B5FFF7FCFF10BD0000C6
:10193000010010B5044A13781940814203D00343D3
:101940001370FFF7F0FF10BD86120020030010B5E2
:10195000044A1078034203D098431070FFF7E3FF66
:1019600010BDC0468612002010B5044B1A78002A1C
:1019700003D000201870FFF7D6FF10BD861200209C
:1019800010B5094A094B14781B781C43084B1B7887
:10199000002B06D01C4304F035FA002801D0FFF7D5
:1019A000E3FF200010BDC046B0120020AF1200209F
:1019B0008612002070B50B4C2568FFF7E1FF2870F8
:1019C0002468094D08222900200007F0B8FA0028F1
:1019D00007D008222100280007F0C7FA200004F0F1
:1019E000BFF970BD240D00207C12002070B50B4C97
:1019F0002568FFF7C5FF68702468094D202229007B
:101A0000200007F09CFA002807D02022210028009F
:101A100007F0ABFA200004F0ADF970BD200D0020F6
:101A20005C12002010B5074B1B78002B06D0064B2C
:101A30001B787F2B02D9FFF7D9FF10BDFFF7BAFF44
:101A4000FBE7C0463E0D0020CE270020704710B5B2
:101A5000FFF7FCFF10BD0000094B10B55B785B077A
:101A60000AD5084CC30019432170FFF7EDFB20781D
:101A7000C008FFF7ECFF10BDFFF7E6FBFBE7C04631
:101A8000CE27002084120020002010B5024B1870D1
:101A9000FFF7DDFF10BDC0468412002010B5094AD3
:101AA00013781900814311704A070AD1994208D06E
:101AB000054B5B785B0704D5C808FFF7D1FBFFF740
:101AC000E3FF10BD84120020CE2700200A4A10B583
:101AD00053785907C90F81420CD0012108400331C6
:101AE00080008B4303435370108800F046F80220B7
:101AF000FFF7D4FF10BDC046CE270020044B10B521
:101B0000587801234007C00F5840FFF7DFFF10BD92
:101B1000CE27002010B50120FFF7D8FF10BD10B56B
:101B20000020FFF7D3FF10BD10B5002000F0CAFE63
:101B30000020024900F0FBFC10BDC046FFFF000082
:101B4000002010B500F098FC034B020000209A42E0
:101B500001D103F04FFF10BDE5FE000010B50220DB
:101B600000F07EFC10BD10B5032000F079FC10BD24
:101B700010B5042000F080FC10BD10B50100042059
:101B800000F0D5FC10BD10B5132000F081FC10BD95
:101B900010B50100132000F0D6FC10BD07B50020E1
:101BA00000F090FE00201F4900F0C1FC002102203F
:101BB00000F0B1FC01211C4B0320197000F0ABFCBC
:101BC000A0210420490100F0B2FC0021062000F011
:101BD000A2FC0021072000F09EFC0021082000F05C
:101BE000B2FC0021232000F096FC00210C2000F024
:101BF00092FC00210D2000F08EFC00230022172112
:101C0000009201936846083200F068FC00211F2012
:101C100000F099FC002003F001FF03F026FFFEF71F
:101C20006FFC07BDE5FE00001012002010B5FFF7A5
:101C3000B5FF10BD10B501000E2000F06CFC10BD0A
:101C4000F7B504F0AFFA094E0400338883420BD095
:101C50006D4600272F8004F0A5FAAF8068800098B9
:101C60000199FEF755FF3480F7BDC046B21200203F
:101C700010B504F05FFA024B1860024B186010BDFB
:101C8000C4120020C0120020704770477047012026
:101C90007047000010B5054800F0A6FA00F00EFEEF
:101CA000FFF7F2FFFEF738FC10BDC046E121000847
:101CB0000120704710B5FFF7FBFF10BD704770475C
:101CC00010B5FFF7FBFFFFF7FAFF10BD10B5FFF7E8
:101CD00037FF002801D1FFF7A9FFFFF73FFF084BAF
:101CE0001870FFF745FF074B188002F005FFFFF75C
:101CF0003AFFFFF76CFA044B1878FFF78CFA10BD27
:101D0000C8120020CE2700200F12002010B504F0CA
:101D10000DFA03F0B9FE00F00BFBFFF7D7FFFEF75B
:101D2000D6FE02F0B5FB02F0C9FFFEF7FBFB10BDCB
:101D3000F0B589B0FFF7ABFF00280BD1FFF780FFAC
:101D400002F0C8FF02F00CFB03F082FBFEF7CAFEB4
:101D500009B0F0BD00F004FB2E4F00243D00200030
:101D60000134E4B22E8800F04FFA052C4FD0023532
:101D70008642F4D0284B1B789B0701D500F04AFA25
:101D8000FFF798FF00240590200000F03DFA3B8803
:101D90000390984233D043409BB2049300230193B5
:101DA00001330293029B049A13421BD01D00039B34
:101DB0001D406B1E9D41059BEDB2002B0DD0019B7C
:101DC00006AE3370747004F0EDF901237080337146
:101DD000757106980799FEF79BFE2A00200001996D
:101DE00001F024FB019B0133DBB20193029B5B00FA
:101DF0009BB20293019B0F2BD4D1039B3B800134F8
:101E0000E4B20237052CBFD1FFF732FF98E78642D4
:101E1000B0D193E7B4120020C812002070B500F0D2
:101E200001F9A4230400DB0198424ED2A023DB0178
:101E3000984200D39FE0DF281CD8CC285BD8A72885
:101E40000AD8A42800D97AE0012831D0031F9BB218
:101E5000A02B2DD900242BE00300A83B9BB21A2B0A
:101E6000F8D85834534BE4B26400E35A8824E401B0
:101E70001C431DE08023DB0198421BD28026B60163
:101E8000B04200D386E0E72812D9431EFF3B013E53
:101E9000FF3E9BB2B342DDD2000AC0B200F054F95B
:101EA0000500E0B200F0BEF82D023540284384B2B0
:101EB000201C70BDC0B200F0B5F8F0231B01234018
:101EC0003D4C18430443A4B2F2E7A523DB0198423A
:101ED0001DD23A4B98423BD8394B98420DD8394BDA
:101EE000984230D80322C4B2A3081440023AA24058
:101EF0005B01354C13431C43E5E7032101220140FC
:101F00008A40C3065B0F5B01304C1343F3E7304B51
:101F1000984208D81F202F4B20409C4222D82E4C9C
:101F200000020443C4E72D4BC3189BB21F2B00D9FA
:101F300090E7F82304025B011C40294B98E78023BB
:101F4000243CDB01D7E71F230340264C1B028FE70D
:101F50000321012201408A40C3065B0F5B01224C32
:101F60001343C8E700F0F0F8F823802400025B0177
:101F70001840A401D5E71F20204000F0E5F8E30554
:101F80001B0F1B0202B2C00601D5120112B2174C80
:101F90001343B0E7C004C00E00F0D6F80500E0B26D
:101FA00000F040F8F8232D025B011D4005432E434D
:101FB000B4B27DE70E92000800A0FFFF5F52000060
:101FC0003F5200001F520000008DFFFF008CFFFFFA
:101FD000BF5200009F520000F4A0000040ADFFFF80
:101FE000F0A00000F1A00000008AFFFF0090FFFFBA
:101FF00007B58BB201AA1180190A0023042905D85C
:1020000012780E2A02D802F0E7FE030018000EBD77
:1020100007B501AB19800199FFF7EAFFFFF7FEFE54
:102020000EBD0000030010B5E7280AD8DF280AD843
:10203000312800D173E00FD8292866D02A2800D192
:1020400074E0180010BDE0380728FAD8FEF7C6F88B
:1020500018F927303DF9474C392808D0822806D096
:102060003528EED1374A12789206EAD506E0354A8D
:102070001178890761D152781207E2D52923E0E768
:1020800030480121027814000C400A4245D14078C2
:102090000842D6D02300D206D3D4E323D1E7294A7D
:1020A00012785107CDD50023D206CAD4E333C8E74E
:1020B0002449E2230A785007C3D448780121040058
:1020C000023B0C400842E5D0BBE71E4A5178890725
:1020D000B7D512780023D206B3D4E733B1E7194A53
:1020E00012781107F6D4ACE71649E6230A781007F0
:1020F000A7D4487802210400023B0C400842A0D13A
:102100002300D2069DD4E7239BE70E4A1178890667
:1021100015D45278120700D493E7392391E7094A7E
:102120001278520600D48CE72A238AE7054A1278EF
:10213000520600D485E7312383E7E02381E7352386
:102140007FE7C046CE27002030B5244C21784B07CE
:102150000DD514220240043A53425A411823034039
:10216000083B5D426B419A4201D00C2358400B075B
:102170000DD514220240143A53425A411823034009
:10218000183B5D426B419A4201D00C235840647861
:10219000E3070DD511220240013A53425A41182358
:1021A0000340083B5D426B419A4201D009235840ED
:1021B000A4070DD511220240113A53425A41182367
:1021C0000340183B5C4263419A4201D009235840C6
:1021D000C90601D51823984330BDC046CE2700203C
:1021E0000020704700207047014B18607047C046C0
:1021F000280D0020704710B5FFF7FCFF10BD704799
:1022000010B5FFF7FCFF10BD014B4000185A704796
:10221000DA270020704710B5032005F036F910BD0D
:10222000C046C046C046C046C046C046C046C0467E
:10223000C046C046C046C046704710B5FFF7EBFF2A
:1022400010BD10B572B60F23020001211A40914053
:102250009843202206F02FF862B610BD70B50A4CE4
:102260000A4D2068431C01D0FFF7EBFF0434AC4259
:10227000F7D1074C074D2068431C01D0FFF7E1FF61
:102280000434AC42F7D170BD8092000894920008EB
:102290004492000880920008F7B5234B8A00D35877
:1022A0000F0001905A1C3ED072B601250F242E005B
:1022B0001A0023409E40A243009231002A00009859
:1022C00005F0F9FF009BB6B25E8362B6FFF7A8FF88
:1022D0000026AC4615490A680023501C09D013009B
:1022E0000F2083431B690240D34062461340013BE9
:1022F0002B40013C1E436D00E4B2B6B2ADB20431D6
:10230000002CE8D1084BBA00D058431C01D0FFF78D
:1023100098FF31004B1E99413800C9B2FFF78DFF7D
:10232000019A7B009E52F7BD8092000844920008FB
:1023300010B5FFF793FF0A220021074806F00DFEB3
:102340000A220021054806F008FE052000F03AF8B0
:10235000FFF751FF10BDC046DA270020D02700202C
:1023600030B585B00A22002101A806F0F6FD002450
:102370002100013401A8E4B2FFF78EFF052CF7D14C
:102380000E4C0A22200001A906F0D9FD05006B1EA3
:102390009D41EDB2002804D00A22200001A906F0D8
:1023A000E4FD2B0005220649200000F00DF8040092
:1023B000FFF726FF200005B030BDC046D027002023
:1023C000DA27002070470000F7B516001C1E134FD7
:1023D0000090019107D001233B7003F0ABFE104B3E
:1023E00018600020FEBD3D78002DFAD00C4B186817
:1023F00003F0E4FE0428F4D9760032000099019835
:1024000006F09DFD002805D032000099019806F0E5
:10241000ACFD2C00002320003B70E3E7D01200202D
:10242000CC12002010B5FFF783FC10BD10B503F0EF
:1024300047FE04F0B3F9FFF72DFC04F0B3F9FFF702
:1024400065FC04F0C5F904F0CBF9FFF7EBFF04F0ED
:10245000E5F904F07BF902F0FBFBFFF731FCF2E752
:1024600013B56B46DC1D0023010001222000237000
:1024700000F02CFA207816BD13B56B469C1D002386
:10248000010002222000238000F020FA208816BDDF
:10249000002307B5010001A80422019300F016FAF9
:1024A00001980EBD07B56A460300D01D01700122D8
:1024B000190000F046FA07BD07B56A460300901DF3
:1024C00001800222190000F03CFA07BD07B5042282
:1024D0000191010001A800F034FA07BDF8B514001D
:1024E000D31D6A46DB08DB00D31A00AF9D4605000A
:1024F000220068460E0000F0E9F922006946280033
:1025000006F01DFD002804D022003100280000F054
:1025100018FABD46F8BD70B50D000400FFF7A0FF26
:10252000A84203D029002000FFF7BCFF70BD70B5A2
:102530000D000400FFF7A0FFA84203D029002000EF
:10254000FFF7BAFF70BD70B50D000400FFF7A0FFE4
:10255000A84203D029002000FFF7B8FF70BD00009B
:1025600010B500F091FA094C094800F049FA094801
:1025700000F046FA200000F043FA074800F040FA65
:1025800000F092FA054B1C6010BDC04600F0010837
:1025900000E0010800E8010800F80108D41200205A
:1025A000012398430C4B70B5C5182B880B4A0026A5
:1025B00093420FD10A4A0536145AE443A4B29C420E
:1025C00008D000F061FA2100280000F039FA060076
:1025D00000F06AFA300070BD00E00108FFFF000063
:1025E000D812002070B50526FFF7BAFF0B4C00F09B
:1025F0004BFA0B4D2988002907D0C943200089B226
:1026000000F01EFA052800D00600064B0234023501
:102610009C42EFD100F048FA300070BD00E00108A4
:10262000D812002000F00108F8B51B4B1C5A012CF1
:102630000FD80222194D63031D43ADB2184B194E3A
:102640009B1A32689A420AD9FFF7CCFF0400200097
:10265000F8BDE0258038042280B22D02EEE747085D
:1026600000F012FA30682F43831C3900336000F009
:10267000E7F9E02307001B029D4209D1E1433068DE
:1026800089B2831C336000F0DBF90400052800D117
:102690003C0000F009FADAE7D81200200080FFFFC2
:1026A00000000208D412002070B50D4D0D4B2A68B1
:1026B00004009A4204D9FFF795FF0400200070BD82
:1026C00000F0E2F9084B2868195D24022143831CBD
:1026D00089B22B6000F0B4F9040000F0E5F9EDE7F1
:1026E000D4120020FFFF0108D8120020234AF0B5C1
:1026F0001400234B234819880233C9431180023246
:102700008342F8D18022C025D20194460127ED01F1
:102710001A881D498A4209D011B21C4800290ADBD7
:10272000110A62541E00B31C8342F1D98020184A5A
:1027300040011360F0BD11002940A94211D19E1C37
:10274000864218D85988C94389B20029EBD0114B69
:1027500052001A40803280235B019A42E3D2A15298
:10276000E1E761460A42DDD10A4E51135200324080
:1027700039401E00EFE73300D8E7C046D8120020EA
:1027800000E0010800F00108FFFF0000FFFF010862
:10279000D4120020FE3F000010B5FFF7E1FEFFF766
:1027A000A5FF10BD802310B55B01040007209C42EB
:1027B00010D20C4B0020E2181B5D8B420AD0200087
:1027C0001170FFF7EDFE002804D17F2C03D8200004
:1027D000FFF76AFF10BD012320009843FFF724FF95
:1027E000F8E7C046D8120020F8B5802304000D0099
:1027F00007205B019C4211D20123200018401C429B
:102800000DD02000C9B2FFF7CDFF01340600290A20
:10281000A0B2FFF7C7FF052800D13000F8BD134B69
:102820001E5BE218B142F9D020001180FFF7B8FE1C
:102830000028F3D17F2C14D8F2B2EBB205279A42CC
:1028400003D02000FFF730FF0700360A2D0AAE4202
:1028500005D00134A0B2FFF727FF0528DED13800EC
:10286000DCE72000FFF7E0FED8E7C046D8120020E2
:10287000802203005201FF20934201D2014AD05C22
:102880007047C046D8120020084B98420BD8084B1E
:10289000C318C20705D5074A125C18781202104304
:1028A00070471888FCE70448FAE7C046FE0F0000AE
:1028B000D8120020D9120020FFFF000010B5FFF74A
:1028C00015FF10BD10B5FFF767FF10BDF0B506008E
:1028D0000D00140085B0002A0BD0CB0709D54B1C86
:1028E000471C88B20193FFF7C3FF30703E00019D83
:1028F000013C01233700334002932B1901940393C9
:10290000019B012B0AD8E30706D564086400281947
:1029100080B2FFF7ADFF305505B0F0BD039B019AC3
:10292000981A80B2FFF7B0FF029B002B05D13880C8
:10293000019B0237023B0193E2E73870000A78708E
:10294000F6E7F7B506000D00141E0BD0CB0709D52E
:10295000471C3E004B1C0178A8B20193FFF722FFF1
:10296000019D013C27003319DB1B012F09D8E30728
:1029700006D5640864002819315D80B2FFF712FFA4
:10298000F7BD59781A782819C01B0902114380B283
:10299000FFF72AFF023FE6E70122094B1000D96842
:1029A00011420CD1D9689018490708D4D968801809
:1029B000C90604D4DB6802301340C01AC0B27047A5
:1029C0000020024037B50400FF25FFF7E5FF01288E
:1029D00011D1002C01D105303EBD0023019301959A
:1029E000019B002B03D1FFF7D7FF013CEFE7019BD1
:1029F000013B0193F4E7002CEED10620ECE7000048
:102A000070B506000C48FFF7DDFF052813D102253D
:102A10000A4C094823692B432361402366612269DC
:102A200013432361FFF7CEFF062802D02369AB438F
:102A300023613423E36070BDFF0F000000200240DB
:102A4000F8B5F8231B06C2180D4B05000E00072031
:102A50009A4214D81830FFF7B5FF05280FD1012787
:102A6000084C1A3023693B4323612E80FFF7AAFFED
:102A7000062802D02369BB4323613423E360F8BDF9
:102A8000FEFF070000200240044B1A69120603D51E
:102A9000034A5A60034A5A607047C0460020024009
:102AA00023016745AB89EFCD8023024A11690B43AF
:102AB00013617047002002407FB5050A040CEDB297
:102AC0000190E4B2002D0FD1002901D0274B1C5DED
:102AD00020002300FF22134010401B021440240456
:102AE0001843204304B070BD01AB1E78002901D00B
:102AF0001E4B1C5D0620FF217043FDF7D3FB5523C1
:102B00005B4243437600F31803265E43FF21F6B28F
:102B100033008E1B4A1B6B4375431B122D12CB1ABD
:102B2000491B62436343614312121B120912D2B262
:102B3000DBB2C9B2062813D8FDF75AFB04060B090D
:102B40000E12040023000C0020001400C2E7210034
:102B50001C0013000A00F7E70B0021001400F9E73E
:102B6000210014001A000B00EEE7C046B0920008E6
:102B70001FB50121FFF7A0FFFF210200030A0B4050
:102B8000000C08400A401B021A430304024810408C
:102B9000184305B000BDC046FFFF00FF010030B57F
:102BA000C0B2012916D9F723FF225B01994202D84E
:102BB0004A090832D2B20124A0184010050045434A
:102BC000ADB2C3B2A94206D2013BDAB29442F3D904
:102BD000013CE0B230BDFF28FCD00133DCB2F5E7A8
:102BE0000F21430615D40B000200034092060B4947
:102BF000920F52005218517812784B431B119B18B8
:102C000040B2DBB2002801DA5B42DBB2803BD8B2D3
:102C10007047C343DAB20B400133E7E795920008EF
:102C20001FB5030A01902431D8B20E4B49005B183E
:102C3000D978E4234B431B121C339A1AD317D218AA
:102C40005A40D200821A01AC131C120400D5002392
:102C50001BB258430012A378607020881B041843ED
:102C600004B010BD000C0020030C84B0019024318E
:102C7000D8B2114B49005B18D978E4234B431B129F
:102C80001C339A1AD317D2185A40D200821A131C36
:102C9000120400D5002301AA12881BB2FF2143436E
:102CA00010001B12120A084012020B401B041043B2
:102CB000184304B07047C046000C002084B001A93E
:102CC00001908B780A7008881B04184304B0704781
:102CD0001FB5074B243149005B18DB7801AC01902C
:102CE0009B1A2370A37820881B04184304B010BDDE
:102CF000000C00201FB5074B243149005B181B79DD
:102D000001AC01909B1A2370A37820881B04184300
:102D100004B010BD000C0020F0B524310E4D4B0066
:102D2000EB181F7916003A0085B0203A019001ACEB
:102D3000C0B253B2120602D52023DB1B5BB249009E
:102D40006918CA78921BD2188018A378207020883E
:102D50001B04184305B0F0BD000C002084B004AA89
:102D60000190107803225A43521001A980188B78E1
:102D7000087008881B04184304B070471FB51C0076
:102D800001904BB2080601D549424BB23820C01A17
:102D900080B292B252434043801880B2FFF7FEFEE9
:102DA0000323434301AAE4181470937810881B048A
:102DB000184304B010BD000030B524330C4D5B0047
:102DC000EB181D79DB78203D703B59437F236A4324
:102DD0005118CA171A40521885B0D21101AC01908F
:102DE0001218A378227020881B04184305B030BD48
:102DF000000C002030B524330C4D5B00EB181D791E
:102E0000DB78203D703B59433F236A435118CA1772
:102E10001A40521885B0921101AC01901218A37893
:102E2000227020881B04184305B030BD000C002020
:102E30007FB5134D24335B00EB181D79DE78203D00
:102E40006A433500703D019001ACC0B26BB22D06F3
:102E500002D570239B1B5BB23825EB1A5943032321
:102E60008A187F215343DA170A40D218D2118018EA
:102E7000A378207020881B04184304B070BDC0469E
:102E8000000C00207FB50E00041C01901000FFF71D
:102E9000A7FE24360E4B76009B19DB7801ADC018D7
:102EA000C0B20200803AE4B2D3B2120603D5802346
:102EB0005B421B1ADBB20C225B00DBB253431B12DA
:102EC000E4182C70AB7828881B04184304B070BD3C
:102ED000000C002030B50D4B243149005B18DD7823
:102EE00085B0AB1A019001ACC0B2D9B21B0601D5B6
:102EF000521BD1B218234B431B12C0182070A37869
:102F000020881B04184305B030BDC046000C0020CB
:102F1000C943030CC9B2DBB24B43FF210A00024094
:102F2000000A084000021043034A1B0A1B04104019
:102F300084B0184304B07047FFFF00FFC943C9B213
:102F400084B0890801AA019009189378117010883B
:102F50001B04184304B070471FB50190052043437C
:102F600006AA128801A9D3181A1C9BB2FF2B00D9FC
:102F7000FF22D3438A78DBB29B181C1CFF2B00D99D
:102F8000FF240A88FF231000120A1840120223406F
:102F90001B041043184304B010BD30B585B0019038
:102FA00008A800881B18C81709184140D017121824
:102FB000424009B29BB292B20901FF2900DDFF2114
:102FC00012B21201FF2A00DDFF220C1C15B209B259
:102FD00001A8A94200DD141C1B191A1C9BB2FF2B6F
:102FE00000D9FF22D3438278DBB29B18191CFF2B38
:102FF00000D9FF210288FF231000120A1840120294
:103000000B401B041043184305B030BD7FB5050CC1
:10301000160008AA01901288E8B201ACFF25482BDF
:1030200006D8D31A1A1C9BB2AB4200D92A1C95B2FF
:10303000083189B2102905D9330008339BB2102B0F
:1030400000D9FF250321ED430C4BF2170A405B78B2
:1030500092199210EDB2D21840192270011CFF286B
:1030600000D9FF212288FF231000120A1840120203
:103070000B401B041043184304B070BDE827002028
:1030800084B004AA12880190D21A131C92B2FF2AAB
:1030900000D9FF23DBB2D94301AA9078C9B2401806
:1030A000011CFF2800D9FF2110781B18137012880B
:1030B000FF231000120A184012020B401B04104399
:1030C000184304B070471FB506AA128801A9D31A85
:1030D0001A1C9BB20190FF2B00D9FF22D3438A78A0
:1030E000DBB29B181C1CFF2B00D9FF240A88FF238E
:1030F0001000120A1840120223401B041043184308
:1031000004B010BD024B1A78104318707047C046C7
:10311000D8220020012310B5044C082217210448AE
:103120002370FFF7D3FB0023237010BDD8220020AB
:10313000E827002010B50B00041E02D1C80FC00103
:1031400010BDC11742184A4012B2D118002B0BDB38
:103150009B1A5801FDF7A6F82023181AC0B2002CBC
:10316000EEDA4042C0B2EBE74801D11AFDF79AF817
:103170006023F2E77FB5040A0190E4B21000E51A7B
:10318000FFF7D8FF8300C01AEDB22D18EDB26C43E3
:1031900001AE2412B378747030881B04184304B055
:1031A00070BD00007FB5040C061CE4B21000E51AE7
:1031B000FFF7C0FF8300C01AFF23EDB22D181800DF
:1031C000EDB26C433040360A1E403602034B3043AA
:1031D000240A24041840204304B070BDFFFF00FF00
:1031E0007FB5060A0190100008AA1278F6B29C1A60
:1031F000FFF7A0FF3419E4B2201AC0B2704301AD4A
:103200000412AB786C7028881B04184304B070BD9E
:103210007FB5061C040C100008AA1578E4B25D1BEB
:10322000FFF788FFFF236519EDB22D1A1800EDB2E4
:103230006C433040360A1E403602044B3043240AA9
:1032400024041840204304B070BDC046FFFF00FFB7
:1032500030B585B0019010001D00FFF76BFF01AC89
:103260004019A378207020881B04184305B030BD96
:1032700030B585B00190100008AA147801AD1C1B70
:10328000FFF758FFE4B2241AAB782C7028881B048F
:10329000184305B030BD0000082210B517210348BF
:1032A000FFF71CF90022024B1A7010BDE82700201E
:1032B000D82200201FB5FFF75BFCFF210200030AA4
:1032C0000B40000C08400A401B021A43030402484A
:1032D0001040184305B000BDFFFF00FF0F2242431E
:1032E000F0B52D4B85B09B185B5C0D00002701905D
:1032F0000293FF2B1ED105B0F0BD039B9B5DFF2BFE
:1033000011D00199FAB291421DD1F2B295421AD16F
:103310000F224A43214B9B185A5D2032111CFF2A71
:1033200000D9FF215955013601340F2EE5D101375F
:10333000052FE0D00F237B43184C174A1C199B180C
:1033400000260393D9E7029A13492432243352000A
:103350005B008A18CB18D078D97812791B79401A7B
:10336000D31A80B29BB240435B43C01880B2FFF7D0
:1033700015FC2828D7D82823181A021C80B2102838
:1033800000D9102223789B181A1C9BB2FF2B00D95E
:10339000FF222270C7E7C046000C0020092300204E
:1033A00010B5FFF779FF10BD312310B5064C03228D
:1033B0000649601C237005F0D8FDE0235B42A38022
:1033C000FFF76AFF10BDC046E82700207C8F000889
:1033D0000020704770B506000D001400FFF7F8FFDD
:1033E0000F227243044B9B185B5DFF2B02D02354CA
:1033F0000130C0B270BDC046000C002010B5024BB9
:10340000DB68984710BDC046A092000810B5024C7A
:103410006468A04710BDC046A092000810B5024BDA
:103420009B68984710BDC046A0920008F0B589B0CF
:10343000019002910392FEF73BFC049000284AD0D1
:103440000024039BA34205D00299019806AAFFF726
:10345000C1FF04002D4D2A781319082B1EDD082604
:10346000611C361B32004919294805F07EFD2100F8
:10347000093132004919274805F077FD61001931FB
:1034800072004919244805F070FD21001131320005
:103490002248491905F069FDF2B22A70002108009E
:1034A0001A4B9C461E4B0593CDB2AB18DBB2AC4217
:1034B00013D8002802D0154BA4181C70039B002BB6
:1034C00009D00322174B1B789343642B03D1029935
:1034D0000198FFF703FF09B0F0BD06A80F5C604636
:1034E000C5183800059E243040003018C678007991
:1034F0006E7068726F7400250C335B006344581C57
:103500005D70013145700498CEE7C046D922002095
:10351000DA220020E2220020F2220020EA2200200B
:10352000000C0020E827002010B5FDF761F910BD60
:103530000E23584382B0C0B201AA1070C018031CF9
:10354000C0B2432800D943231078DBB21B021843D2
:1035500002B07047F0B58BB0039000780591FFF78B
:10356000E7FF83B21B0A02932D4B07AA10801A684B
:103570002C4B92B21B79C4B25B0853431B12DBB2D3
:103580000493294B6700FF18029AE3B29A4206D8C7
:103590004223002093424041C0B20BB0F0BD234B08
:1035A000039A1B5D52781A4236D03D787E78703D82
:1035B000203EADB2B6B230002B0070436B43C01852
:1035C00080B2FFF7EBFA32B2049E29B20300154D28
:1035D000174800966E78457880782D0235430004B0
:1035E0002843059DA84709AB187002040002120E7B
:1035F000000E5A7098700998FFF75CFE01040302F0
:1036000008AA090E1B0E107051709370C9B2C2B295
:10361000DBB22000FFF7FAFE02370134B4E7C04600
:10362000F0270020E82700204B0C0020D10C0020C0
:10363000E927002010B50249FFF78CFF10BDC046F6
:10364000E131000810B50249FFF784FF10BDC04604
:103650001132000810B50249FFF77CFF10BDC046CB
:103660005D2D000810B50249FFF774FF10BDC0467C
:1036700071320008F0B5070089B000780391FFF7B8
:1036800057FF05AB86B21880330A0193264BC4B2AC
:103690001A79264B52081B6865009BB253431B12D4
:1036A000DBB20293224BED18019AE3B29A4206D89C
:1036B0004223002093424041C0B209B0F0BD1D4BEF
:1036C0007A781B5D1A422CD0174B1B485B786A78BE
:1036D0009C4666464378297880781B023343203A1B
:1036E0007039000409B212B21843039E029BB0471E
:1036F00007AB187002040002120E000E5A70987088
:103700000798FFF7D7FD0104030206AA090E1B0E56
:10371000107051709370C9B2C2B2DBB22000FFF7D3
:1037200075FE02350134BFE7E8270020F0270020AE
:103730004B0C0020D10C0020E927002010B50249D5
:10374000FFF798FF10BDC0467531000810B502495B
:10375000FFF790FF10BDC046A531000810B5024923
:10376000FFF788FF10BDC0467D2D000810B5024947
:10377000FFF780FF10BDC04651320008F0B50600CB
:1037800087B000780F00FFF7D3FE03AB1880214B02
:1037900085B21A79204B92081B6801329BB25343C1
:1037A0001B12DBB22D0A0193C4B2E1B28D4206D8DE
:1037B00042230020AB424041C0B207B0F0BD174BDE
:1037C00072781B5D1A4223D0154A124B58785378F1
:1037D0001B0203439078019A00041843B84705ABD5
:1037E000187002040002120E000E5A7098700598AC
:1037F000FFF760FD0104030204AA090E1B0E1070FE
:1038000051709370C9B2C2B2DBB22000FFF7FEFD67
:103810000134CAE7E8270020F0270020D10C00205F
:10382000E927002010B50249FFF7A8FF10BDC046E8
:10383000212C000810B50249FFF7A0FF10BDC046BB
:10384000692C000810B50249FFF798FF10BDC0466B
:10385000BD2C000810B50249FFF790FF10BDC0460F
:10386000D12C000810B50249FFF788FF10BDC046F3
:10387000F52C000810B50249FFF780FF10BDC046C7
:10388000192D000810B50249FFF778FF10BDC0469A
:10389000852E000810B50249FFF770FF10BDC04625
:1038A000D52E0008F0B507008BB000780591FFF722
:1038B0003FFE07AB86B21880330A294A0293294B90
:1038C00015681B79ADB29B085D432D12EDB2C4B2F1
:1038D00028004030C0B2FFF783F9803843B2280097
:1038E0000393FFF77DF9803843B20493029AE3B261
:1038F0009A4206D84223002093424041C0B20BB006
:10390000F0BD194A7978125D114226D01749154A3F
:10391000009550784A78059E1202024388780399F0
:1039200000041043049AB04709AB18700204000267
:10393000120E000E5A7098700998FFF7BBFC010434
:10394000030208AA090E1B0E107051709370C9B2C1
:10395000C2B2DBB22000FFF759FD0134C6E7C04612
:10396000F0270020E8270020D10C0020E9270020C4
:1039700010B50249FFF796FF10BDC046B92D0008EB
:1039800010B50249FFF78EFF10BDC046F52D0008A7
:1039900010B50249FFF786FF10BDC046312E000862
:1039A000F0B5070089B000780291FFF7C1FD05ACC2
:1039B000354B20801B7985B201332D0A191CFF2B52
:1039C00000D9FF21314889B2FCF76CFC247886B21B
:1039D000E3B201939D4206D842230020AB4240410E
:1039E000C0B209B0F0BD2A4B7A781B5D1A4237D0BD
:1039F0002848294B02780393013A52B2130631D575
:103A00003300214A117901310A1CFF2900D9FF2214
:103A100092B25343214A19121B4B89B258785378FA
:103A20001B020343907800041843029B984707AB9E
:103A3000187002040002120E000E5A709870079857
:103A4000FFF738FC0104030206AA090E1B0E1070D2
:103A500051709370C9B2C2B2DBB22000FFF7D6FC3E
:103A60000134B5E7039B01999B5C8B4209D113009C
:103A70000C335B00C31859789B781B020B43B3428D
:103A8000BFD3013ABAE7C046E8270020FFFF000095
:103A9000D10C0020F427002005280020E927002071
:103AA00010B50249FFF77CFF10BDC046112F00087A
:103AB00010B50249FFF774FF10BDC0463D2F000846
:103AC000F0B591B0089008780B920991FFF730FD9E
:103AD00083B21B0A0793454B0DAA1B78C7B20A9302
:103AE000434B10807A00D318079A0593FBB29A4291
:103AF00006D84223002093424041C0B211B0F0BD2D
:103B00003C4B099ADB5D52781A422AD000240322EA
:103B100039490EA805F029FA089B089A0393334BFC
:103B2000D3180493049B0A9A013304936B461B7BBE
:103B30009A421AD8314BDB785C430EAB24129C704E
:103B40000E98FFF7B7FB010403020FAA090E1B0E24
:103B5000107051709370C9B2C2B2DBB23800FFF777
:103B600055FC059B01370233BEE7059B1D78049B7E
:103B70001B78ED1AABB20693059B06985E78049B02
:103B800040431B7AF61AB6B233007343C01880B2B2
:103B9000FFF704F8194A030012790132111CFF2AB9
:103BA00000D9FF210398114A0C30400012185078B8
:103BB000927889B2120202434A4369460EAD12124C
:103BC000AC7090B21824095F32B20B9C00900E9832
:103BD000A04703041B0E6B70039B0402240E0133E9
:103BE000AC702870E4B203939CE7C046F427002031
:103BF0004B0C0020D10C0020E9270020E8270020F2
:103C0000064B10B51C780100013C054A201C002C15
:103C100000DA0020C0B2FFF753FF10BDF4270020E8
:103C2000592F000810B501000020024AFFF748FF95
:103C300010BDC046592F0008064B10B51C78010076
:103C4000013C054A201C002C00DA0020C0B2FFF71E
:103C500037FF10BDF42700209B2F000810B501008E
:103C60000020024AFFF72CFF10BDC0469B2F000822
:103C7000064B10B51C780100013C054A201C002CA5
:103C800000DA0020C0B2FFF71BFF10BDF4270020B0
:103C90000D30000810B501000020024AFFF710FFA8
:103CA00010BDC0460D300008064B10B51C78010051
:103CB000013C054A201C002C00DA0020C0B2FFF7AE
:103CC000FFFE10BDF42700208130000810B5010070
:103CD0000020024AFFF7F4FE10BDC0468130000804
:103CE000064B10B51C780100013C054A201C002C35
:103CF00000DA0020C0B2FFF7E3FE10BDF427002079
:103D0000C730000810B501000020024AFFF7D8FEB6
:103D100010BDC046C7300008F7B507000078FFF7B0
:103D200007FC6B46164A1880164B86B259785378B2
:103D3000C4B290781B020B4300041843FFF7BAFA91
:103D400001AD0304287000021B0E000E360A6B70D2
:103D5000A870E3B29E4205D842230020B3424041FE
:103D6000C0B2FEBD084B7A781B5D1A4205D0200018
:103D7000AB782A786978FFF749FB0134E9E7C04658
:103D8000E9270020E8270020D10C0020F0B505002D
:103D900087B00078FFF7CCFB04AE1D4F83B203AAB7
:103DA00010801B0A03221B49C4B23000019305F0A6
:103DB000DCF83F79BF08019AE3B29A4206D8422361
:103DC000002093424041C0B207B0F0BD124B6A7868
:103DD0001B5D1A4219D0114A6300D35C0C4A1B09BF
:103DE0007B4352789B1833703068FFF763FA010405
:103DF000030205AA090E1B0E107051709370C9B210
:103E0000C2B2DBB22000FFF701FB0134D3E7C046AA
:103E1000E8270020E9270020D10C00204C0C0020CE
:103E2000F0B5050087B00078FFF782FB04AE1D4FA8
:103E300083B203AA10801B0A03221B49C4B23000BC
:103E4000019305F092F83F79BF08019AE3B29A42D4
:103E500006D84223002093424041C0B207B0F0BDD3
:103E6000124B6A781B5D1A4219D0114A6300D35C69
:103E70000C4A7B4352785B119B1833703068FFF714
:103E800019FA0104030205AA090E1B0E10705170E5
:103E90009370C9B2C2B2DBB22000FFF7B7FA0134A7
:103EA000D3E7C046E8270020E9270020D10C0020F6
:103EB0004B0C0020F0B5060087B00078FFF738FB08
:103EC00004AF244C03AB18800322C3B2224985B24D
:103ED0003800019305F049F82300204A1879126848
:103EE000C00892B250430012C0B2FEF779FE020041
:103EF000803AE4782D0AD3B2120603D580235B42C0
:103F00001B1ADBB25B00DBB25C432412BC7004986A
:103F1000FFF7D0F905AC0304207000021B0E000E61
:103F2000019F6370A070FBB29D4206D8422300201F
:103F3000AB424041C0B207B0F0BD094B7278DB5DC7
:103F40001A4205D03800A37822786178FFF75EFA2C
:103F50000137E8E7E8270020E9270020F0270020C4
:103F6000D10C0020F0B5050087B00078FFF7E0FA2B
:103F700004AF254E03AB18800322C3B2234984B299
:103F80003800019304F0F1FF3300214A18791268D8
:103F9000C00892B250430012C0B2FEF721FE0200E8
:103FA000803A7678240AD3B2120603D580235B4286
:103FB0001B1ADBB20C225B00DBB253431B12F61858
:103FC0003E700498FEF7D4FD05AE03043070000285
:103FD0001B0E000E019F7370B070FBB29C4206D89E
:103FE00042230020A3424041C0B207B0F0BD094BBC
:103FF0006A78DB5D1A4205D03800B3783278717880
:10400000FFF704FA0137E8E7E8270020E927002056
:10401000F0270020D10C0020F0B506008BB000780E
:10402000FFF786FA07AA83B210801B0AC2B2059274
:104030000493B378002B09D0002211001000FFF781
:10404000EDF94B220021414804F087FF3378002B23
:104050000ED13F4C208802F0AAF8182383429B41DE
:104060003C4A5B421370182802D902F09BF820806A
:1040700000250295384B354CEB1801930F232C1972
:104080000393019B059A1B7893420BD3049A9342A6
:1040900008D2324A9B5C72781A421CD1029B0133CF
:1040A000DBB20293039B0134013BDBB20393019B20
:1040B00001330193039B002BE3D13C2D03D0029BE2
:1040C0000F350D2BD6D942230020049A934240414C
:1040D000C0B20BB0F0BD27783A00553A131C002A45
:1040E00000DA0023562239005242D31A08AA13706C
:1040F0001B4BAA319B7853700B1CFF2900D9FF235F
:1041000003214B4316490233C978DBB24B431B12E0
:1041100093700898FFF7CEF80104030209AA090E6C
:104120001B0E107051709370C2B20198DBB2007810
:10413000C9B2FFF76BF9074B1B78002BAED0013FDC
:104140003B1C002F00DA00232370A7E7092300207F
:104150005623002054230020000C0020D10C002006
:10416000E827002070B5704B050019786F4A0123CD
:10417000814208D113786E499B0709789B0F5B1A1F
:10418000591E8B41DBB26B4CA370537962789A4213
:1041900005D00022110010006370FFF73FF9252DB4
:1041A0001DD82800FCF724F8132C3034383C404448
:1041B000484C5054585C6064686C7074787C80849F
:1041C000888C9094989CA0A4A8ACB0B4B8BCA378F8
:1041D000002B04D0002211001000FFF71FF900206F
:1041E000237801332370002809D10222524B1A7020
:1041F000A278002A03D1002D01D103321A7070BDBC
:104200002000FFF789FDEBE72000FFF7BFFDE7E7A0
:104210002000FFF705FEE3E72000FFF74BFEDFE796
:104220002000FFF7FFFADBE72000FFF703FBD7E7EB
:104230002000FFF783FAD3E72000FFF787FACFE7E4
:104240002000FFF7F7F9CBE72000FFF7FBF9C7E7FE
:104250002000FFF7F7FAC3E72000FFF7FBFABFE7FC
:104260002000FFF7FFFABBE72000FFF703FBB7E7EB
:104270002000FFF7EFF9B3E72000FFF76FFAAFE791
:104280002000FFF773FAABE72000FFF7EBF9A7E791
:104290002000FFF76DFBA3E72000FFF771FB9FE70E
:1042A0002000FFF775FB9BE72000FFF75BFE97E719
:1042B0002000FFF7E7FA93E72000FFF7EBFA8FE71C
:1042C0002000FFF7A9FE8BE72000FFF7E9FB87E757
:1042D0002000FFF7EDFB83E72000FFF791FC7FE76D
:1042E0002000FFF79FFC7BE72000FFF7A5FC77E7A6
:1042F0002000FFF7B3FC73E72000FFF7B9FC6FE77E
:104300002000FFF7C7FC6BE72000FFF7CDFC67E755
:104310002000FFF7DBFC63E72000FFF7E1FC5FE72D
:104320002000FFF7EFFC5BE7300D0020E8270020BE
:10433000310D00202D0D00202C0D00200120704794
:1043400010B5FFF7FBFF10BD07B500780138C0B20C
:10435000FFF7EEF881B2090AC0B2FFF7F1FF07BD1F
:10436000F7B53F4D286801F029FF040001F0E2FE97
:104370002860002506002F003A4B1B789C46190048
:10438000394B1B1B0193EBB29C4518D8002F01D071
:10439000344B19700025354B1B78AB4207D1344B99
:1043A00003221B781D001540134200D09D08314C9C
:1043B0002078032838D8FBF71BFF1D2A38442B0030
:1043C000284A0C335B00D218937850781B020343C1
:1043D0000198984204D201270139C9B20135D2E7C8
:1043E0001B1998B20090FF2003405370009B180ADD
:1043F0009070F3E70022204B20481A70204B194997
:1044000029321E6004F0B1FD012323700CE0280066
:10441000FFF7A8FE002D07D02378022B01D1FFF76C
:1044200083F81548FFF790FFF7BD164B164A1D702D
:104430000F4B1B789B079B0F1370FEF7DFFF0323C7
:10444000E3E7124B1B78002B01D0FEF725FF0C4B46
:10445000186801F0B3FE1928E6D90023D5E7C04655
:1044600004230020D9220020FFFF000008230020A1
:10447000E82700202C0D00202D0D0020F42700201F
:10448000F0270020300D0020310D0020D822002020
:1044900010B500240C4B1B6898470C4B1022FF21D1
:1044A0000B481C7004F059FD0A4B1022FF210A48EA
:1044B0001C7004F052FDFEF72DFE084B1B78032BF9
:1044C00001D8FEF771FF10BDA0920008F42700206C
:1044D0000D280020D9220020F2220020E827002009
:1044E00070B5041E0B4D12D02E78002E0FD1300067
:1044F000FFF738FE084B094A1E70094B1B789B07D3
:104500009B0F1370FEF77AFF0322064B1A702C7074
:1045100070BDC04608230020300D0020310D002062
:10452000E82700202C0D0020012310B5044A117843
:104530004B4013700022034B1A70FEF7E3FD10BDD1
:10454000E82700202C0D002010B50020FFF7ECFF1D
:1045500010BD10B50120FFF7E7FF10BD074B032288
:10456000197808001040114201D1054A1070032249
:1045700019789143023A0A431A707047E8270020DD
:104580002C0D002010B5FFF7E9FF0120FEF7BAFD62
:1045900010BD0000054B1A78920702D00021044A92
:1045A000117003211A788A431A707047E827002097
:1045B0002C0D0020024B18788007800F7047C046F2
:1045C000E8270020020008000C4910B50B789B0773
:1045D00012D00123002A04D024339A4201D81A337E
:1045E000134003240A789B002240134300220B70DF
:1045F000034B1A70FEF786FD10BDC046E827002069
:104600002C0D002010B50021FFF7DCFF10BD10B508
:104610000121FFF7D7FF10BD014B187880087047C4
:10462000E8270020054B0100187810B580080130FC
:10463000252800D90120FFF7C5FF10BDE82700207D
:1046400010B50120FFF7EEFF10BD0000064B010082
:10465000187810B580080138C0B2002800D1253084
:10466000FFF7B0FF10BDC046E827002010B50120BD
:10467000FFF7ECFF10BD000070B5084C05001800F6
:1046800023789B0709D06570A170131C8C2A01D96F
:10469000034B1B78E370FEF735FD70BDE827002063
:1046A0009492000810B50023FFF7E6FF10BD10B587
:1046B0000123FFF7E1FF10BD014B58787047C0465A
:1046C000E8270020014B98787047C046E827002073
:1046D000014BD8787047C046E827002010B503008A
:1046E0000348C278817840782430FFF7C5FF10BDB9
:1046F000E827002010B50120FFF7F0FF10BD0000F3
:1047000010B503000448C27881784078243880B21C
:10471000FFF7B2FF10BDC046E827002010B501200A
:10472000FFF7EEFF10BD000010B5030006488478C7
:10473000C2780834211CFF2C00D9FF214078C9B26F
:10474000FFF79AFF10BDC046E827002010B50120F2
:10475000FFF7EAFF10BD000010B50300064884789B
:10476000C278083C211C002C00DA00214078C9B234
:10477000FFF782FF10BDC046E827002010B50120DA
:10478000FFF7EAFF10BD000010B503000648C1782E
:104790001C310A1CFF2900D9FF228178D2B240784F
:1047A000FFF76AFF10BDC046E827002010B50120C2
:1047B000FFF7EAFF10BD000010B503000648C178FE
:1047C0001C390A1C002900DA00228178D2B2407814
:1047D000FFF752FF10BDC046E827002010B50120AA
:1047E000FFF7EAFF10BD000010B5034B1871002061
:1047F000FEF788FC10BDC046E827002010B5034B2B
:1048000018710120FEF77EFC10BDC046E82700208D
:10481000014B18797047C046E827002010B5054ABB
:1048200013793C33191CFF2B00D9FF211171FEF7BE
:1048300069FC10BDE827002010B50120FFF7EEFF4E
:1048400010BD000010B5054A13793C3B191C002B24
:1048500000DA00211171FEF755FC10BDE827002099
:1048600010B50120FFF7EEFF10BD0000014B587995
:104870007047C046E8270020F0B5050003206843D4
:104880000A4C261877788F4205D1005D904202D1FC
:10489000B078984208D00126054806700320684386
:1048A000251869702254AB70F0BDC0461D28002049
:1048B00058230020F8B505000E0017000024200042
:1048C0003B00320029000134FFF7D6FF432CF6D11C
:1048D000F8BD000010B500F0C1F80022014B1A70BD
:1048E00010BDC0465823002010B5054C2378002B7E
:1048F00005D04321034800F0BBF80023237010BD0E
:10490000582300201D28002010B5002801D0904712
:1049100010BD8847FCE7000070B54D790400002DFC
:1049200043D1FCF7B9FF2223214A0340A0181428E1
:104930003BD8FBF75DFC0B0F15181B1E2124272A03
:104940002D303436380D0D0D0D0D0D00FFF701FE25
:10495000280070BD174A18491800FFF7D5FFF7E780
:10496000154A1449F8E7154A1549F5E7144A134959
:10497000F2E7144A1449EFE7134A1249ECE7134AE5
:104980001349E9E7124A1149E6E7124A1249E3E7F7
:10499000114A1049E0E70120FFF739FED8E704206B
:1049A000FAE70C20F8E71120F6E70125D0E7C0462A
:1049B000E087FFFF6D460008414600081D470008DC
:1049C000F54600087D4700084D470008DD47000810
:1049D000AD470008614800083948000830B5072392
:1049E00001251C4A1C492C009C401183204219D0EF
:1049F0000324C046C046C046C046C046C046013C2F
:104A0000002CF6D15183C046C046C046C046C046C1
:104A1000C046C046C046C046C046C046C046013B30
:104A2000E1D230BDC046C046C046C046C046C046C2
:104A3000C046C046C046C046C046C0460324518357
:104A4000C046C046C046C046C046C046013C002CD9
:104A5000F6D1E4E7000400480080FFFF802110B594
:104A600001220248090203F026FC10BD00040048A0
:104A7000F7B50500019172B600240327019B9C4203
:104A80000CD3A0239B00C046C046C046C046C046CB
:104A9000C046013B002BF6D162B6F7BD3B00634335
:104AA000EE18E85CFFF79AFF7078FFF797FF013484
:104AB000B078FFF793FFE4B2E0E710B5FDF734F804
:104AC00010BD10B50020FDF79FFB0123184010BD5D
:104AD00010B5FDF745FC074802F0D7FCFDF740FC98
:104AE000FFF7EFFF002803D0FFF7E7FF01F086FB99
:104AF00010BDC046B80B000010B5FFF7E9FF10BDB0
:104B0000F0B585B002920393002802D1002005B0D1
:104B1000F0BD0029FAD0029B002BF7D0039B002B9D
:104B2000F4D0040000232278002A2CD1184D0192E1
:104B30002F787B1CDBB22B70002B19D000263201A2
:104B4000825C9A4214D001368E42F8D1019A002A32
:104B500001D00F4A13702B78237001F0EBFA029BFF
:104B6000C018039B6060A3600A9B2878E360CEE7CF
:104B700001225E1CF6B201929F4202D1044B1E70CC
:104B8000C4E73300D8E7013310348B42CBD1BDE703
:104B9000E023002070B504001D0000280ED0081E80
:104BA0000CD0181E0AD0101E08D000232078904286
:104BB00005D101F0BFFA28186060012070BD0133F3
:104BC00010348B42F2D10020F8E7F7B5160004004C
:104BD000019101F0AFFA33680500C31A002B04DD20
:104BE00030600026019B9E4200D1F7BD2778002F40
:104BF0000ED06068431B002B0ADCA368E16898476D
:104C00002378BB4204D1002805D063681B18636079
:104C100001361034E6E720706060A060E060F7E7DE
:104C200013B5044C0B000092082102002000FFF78E
:104C300067FF16BD5C23002010B5044C02000B007A
:104C400020000821FFF7A6FF10BDC0465C2300200E
:104C500010B50821024A0348FFF7B7FF10BDC04650
:104C6000DC2300205C23002010B5FBF7EFFD10BD16
:104C70000120704710B5FFF7FBFF10BD01210C4B61
:104C800070B51B690B4DDB089943DC430A4E2B784A
:104C900031708B4201D1002808D00020FFF7E4FFDB
:104CA00001202040FFF7E6FF33782B7070BDC0462F
:104CB00000040048E1230020E223002010B5202258
:104CC0000821034803F0F7FA0120FFF7D7FF10BDD2
:104CD0000004004810B50020FFF7D0FF10BD0420ED
:104CE00070471E234B4352009B18962250431818BE
:104CF00028307047002370B503280FD804290DD839
:104D00000E2A0BD8FFF7EDFF0400FDF7A9FB050203
:104D1000601CFDF7A5FBADB2284383B2180070BD3F
:104D200070B51D0003280DD804290BD80E2A09D808
:104D3000FFF7D7FF0400290AFDF7EDFBE9B2601C7D
:104D4000FDF7E9FB70BDF7B50025002413E0E3B2E1
:104D5000EFB21900F2B238000193FBF79FFDF2B2F7
:104D60000300019938000136FFF7DAFF0F2EEED16C
:104D70000134052C01D00026E9E70135042DE4D1EA
:104D8000F7BDF8B528309627140005005618BF0067
:104D9000B44200D1F8BD2B00283B0020BB4202DA10
:104DA0002800FDF75DFB207001350134F0E7F8B510
:104DB00028309627140005005618BF00B44200D1D1
:104DC000F8BD2B00283BBB4203DA28002178FDF711
:104DD000A2FB01340135F1E7002310B5032806D802
:104DE000042904D80E2A02D8FFF784FF0300180014
:104DF00010BD10207047D82000017047F8B5A023DF
:104E0000D82714009B00C51856183F01B44200D1A2
:104E1000F8BD064B0020EB18BB4202DA2800FDF774
:104E20001FFB207001350134F0E7C04680FDFFFF15
:104E3000F8B5A023D82714009B00C51856183F01C9
:104E4000B44200D1F8BD054BEB18BB4203DA280091
:104E50002178FDF760FB01340135F1E780FDFFFFAC
:104E600070B5A0248025A4006D012000002101342C
:104E7000FDF751FBAC42F8D170BD0000F7B506005C
:104E80000F2854D82A48FDF7EBFA00284FD1A02468
:104E90008025A4006D01002E29D10822310068462A
:104EA0006D4604F05AF82000FDF7DAFA0023671C7B
:104EB00028706B7098423AD0012812D13800FDF763
:104EC000CFFAA61C6870002831D0431E022B19D8D7
:104ED0003000FDF7C5FAE71CA870002827D0002392
:104EE000EB700021280000F029FC3C00DBE7AC421D
:104EF0001DD02000FDF7B4FA01340028F7D1013E9F
:104F0000F6B2C8E737000428EBD102243000FDF7E1
:104F1000A7FA01362855002809D07C2804D100239F
:104F20002C1937006370DCE70134072CEED1F7BD94
:104F3000FF0F0000124A10B501230C00904215D15A
:104F4000FCF7AAFC617903000E4A002910D0AA21BF
:104F50000B401900481E814129201170002B00D000
:104F60000C3000F0DFFFFCF75DFD0023180010BDE2
:104F700013782920002B00D00C3000F0EFFFF2E76F
:104F8000167C0000E323002070B505004879002856
:104F900000D1CCE0674BEB18222B00D9ABE0FCF73B
:104FA000E7FD654C654B2080E818212812D8FBF7F7
:104FB0001FF93FAD48191C4B1F4E5728A52B5A2EE1
:104FC0005D8731608F37676D225125543B6A7A992E
:104FD000A31543B50123227813434FE008236278D9
:104FE00013432CE002232278F6E704232278F3E728
:104FF00008232278F0E701236278F1E70223627840
:10500000EEE710232278E7E720232278E4E7402325
:105010002278E1E7FCF78EF8802322785B42DBE719
:105020000C2322789A43D7E7032362789A43D7E781
:1050300001222378934321E008226378934363702D
:1050400053E002222378F5E704222378F2E70822CE
:105050002378EFE701226378F0E702226378EDE737
:1050600010222378E6E720222378E3E74022237802
:10507000E0E7FCF75FF87F2223781340237034E0E9
:105080000C222378D6E703226378D7E70122042095
:1050900023785907C90F8A43910083430B430821A2
:1050A000D2008B4398E7012108006378DA07D20F1A
:1050B000904302228B430343410093430B43BEE7DB
:1050C000012223785906C90F8A4392014021E8E75B
:1050D000FCF730F801222378D9094A407F21D20118
:1050E0000B4079E70120FCF7A5FD2088FCF745FD82
:1050F000FCF720F8002070BD0020F4E7012223789F
:10510000D906C90F8A4312011021CAE701210800FC
:105110002378DA07D20F90430200C2E701226378B6
:105120001907C90F8A430821D2008B4358E7012091
:10513000E1E7C0460090FFFFCE270020FF8FFFFF72
:10514000B523434398B2002B07DA803B1BB2D81734
:10515000C0B2C018001240B27047803080B2F9E788
:1051600010B5164B1B78DA070AD5154B1B785B0078
:105170007F20834203D87E38002B00D0D8B210BDE8
:105180009A0703D50E4B1B789B00F1E75B0703D50D
:105190000B4B1B78DB00EBE70A4B187800280BD091
:1051A000094B1978064B1B788842F3D25843C0004C
:1051B000FBF778F883B2DBE70823DFE7EA23002078
:1051C000370D0020E9230020360D002010B5154BC7
:1051D0001A7801231A4207D0134B1B789B08012031
:1051E000002B0ED0D8B20CE0910703D50E4B1B78E4
:1051F0005B08F4E7520705D50B4B1B787F208342F1
:10520000EDD910BD094A10780028EBD0084B197869
:10521000054B1B788842F1D25843FBF743F883B221
:10522000ECE7C046EA230020330D0020E8230020ED
:10523000320D00200300CD3810B5122810D8FAF72F
:10524000D7FF0A10141A32323232323232321E236F
:10525000282E3C424600FFF783FF1F4B4042D87088
:1052600010BDFFF77DFF1C4BF9E7FFF779FF1A4BE5
:1052700040429870F4E7FFF773FF174BF9E7FFF729
:10528000A5FF154B1871EBE7FFF7A0FF124B40424B
:10529000F8E7FFF79BFF104B40425871E0E7FFF73C
:1052A00095FF0D4BF9E70122D13B9A400A491300C3
:1052B0000A0049780B435370D2E70123074A11785B
:1052C0000B431370CCE7054A02231178F8E7034A31
:1052D00004231178F4E7C046EB230020EA230020E2
:1052E000032200B5344B9A56CD2814D1002A01DA96
:1052F0000022DA70D9789A780A4351B2002A01D193
:105300002E4A11701A795B7913435AB2002B01D1DE
:105310002B4B1A7000BDCE2802D1002AE8DCE9E749
:1053200002229A56CF2804D1002AE3DA00229A708A
:10533000E0E7D02802D1002AF8DCDBE704229A5605
:10534000D92804D1002AD5DD00221A71D2E7DA2843
:1053500002D1002ACEDAF7E705229A56DB2804D1DB
:10536000002AC7DA00225A71C4E7DC2802D1002AD9
:10537000F8DCBFE7D1380E28BCD8FAF72FFF0808B1
:10538000080808080808BBBBBBBB0E1418000121A5
:1053900081405A788A435A70ACE7012009490A785B
:1053A00082430A70A6E7074902200A78F8E7054910
:1053B00004200A78F4E7C046EB230020E92300200C
:1053C000E8230020EA23002010B500F0EBFE0300E4
:1053D00007488278C1780A4301D0064A13800279CF
:1053E00041790A4301D0044A138000F0CFFC10BD7C
:1053F000EB230020E6230020E4230020062210B542
:105400000021054803F0A9FD0023044A1370044A53
:105410001370044A137010BDEB230020E923002011
:10542000E8230020EA230020022282560300012004
:10543000002A0BD103229A56002A07D104229A5639
:10544000002A03D105201856431E984170470000DA
:1054500073B5534C06222100684603F086FD0023F5
:105460006D46A370E37023716371AB78EA781343E0
:105470000BD04C4B188800F09AFE4B490B78002B50
:1054800026D04A4A127890422BDC2B796A79134352
:105490000BD0474B188800F08AFE46490B78002B4A
:1054A00049D0454A127890424EDC2900200000F095
:1054B0008FFD002804D12000FFF7B6FF002801D09F
:1054C000FFF782FF29000622200003F04EFD73BD86
:1054D0003A4A16780A2272439042D6DD01330B70A5
:1054E00001E0FF2BFAD10226AE57002E07D0FFF7BE
:1054F00037FEFF23002E00DDFE3B4343A37003264F
:10550000AE57002E07D0FFF72BFEFF23002E00DD45
:10551000FE3B4343E370022020560028B5D003260B
:10552000A657002EB1D0FFF70BFEA0703000FFF79A
:1055300007FEE070A9E7224A16780A2272439042D9
:10554000B3DD01330B7001E0FF2BFAD10426AE5717
:10555000002E07D0FFF73AFEFF23002E00DDFE3BB2
:10556000434323710526AE57002E07D0FFF72EFECA
:10557000FF23002E00DDFE3B4343637104202056D1
:10558000002800D191E70526A657002E00D18CE710
:10559000FFF7D6FD20713000FFF7D2FD607184E780
:1055A000EB230020E6230020E9230020380D002013
:1055B000E4230020E8230020340D0020390D0020D2
:1055C000350D0020F7B5574BC2081B5C012700932F
:1055D00007231840544B0C009B5C034119003940D1
:1055E00001915249895C014139400D0050498A5C62
:1055F00002413A4016003B4216D0E120FBF7BEFACA
:105600003800002C0ED000234A4A2000002103F06D
:10561000FFFB0023484A80185941FA2200239200D8
:10562000FAF796FE01F031FF002D16D0E620FBF7C9
:10563000A5FA0120002C0ED000233E4A20000021B4
:1056400003F0E6FB00233C4A80185941FA2200236C
:105650009200FAF77DFE01F018FF00982100FBF799
:1056600007FB0120002C0ED00023324A200000212D
:1056700003F0CEFB0023304A80185941FA22002360
:105680009200FAF765FE01F000FF002D16D0E6202B
:10569000FBF7B8FA0120002C0ED00023254A200089
:1056A000002103F0B5FB0023234A80185941FA2258
:1056B00000239200FAF74CFE01F0E7FE019B002B5D
:1056C00016D0E120FBF79EFA0120002C0ED000231B
:1056D000184A2000002103F09BFB0023164A801883
:1056E0005941FA2200239200FAF732FE01F0CDFE72
:1056F000002E16D02C20FBF7DDFA0120002C0ED056
:1057000000230C4A2000002103F082FB00230A4AF8
:1057100080185941FA2200239200FAF719FE01F08D
:10572000B4FEF7BDB0930008509400084094000800
:1057300030940008A0860100E7030000F7B50023BD
:10574000304A04000D000800002103F061FB002333
:105750002D4A80185941FA2200239200FAF7F8FDE9
:105760000190207800284BD0012845D1607801387D
:10577000032805D8A378A61CFAF73AFD0B101418D5
:1057800001340198002D00D1012001F07EFE01348A
:10579000E7E71800FBF78EFA3400F2E71800FBF792
:1057A000EDF9F9E71800FBF72DFAF5E70A210020DB
:1057B00004228C463400154EF15C671C114212D154
:1057C000002817D000230F4AC11703F021FB002344
:1057D0000D4A80185941FA2200239200FAF7B8FDC9
:1057E00001F053FECDE761464843303B181863781B
:1057F0003C00E1E70120F3E72900FFF7E3FEC6E7FD
:10580000F7BDC046A0860100E703000045980008E8
:10581000F8B5140042791D0006AB1F78274B002A0B
:1058200011D01C7000F0BEFC254B188023002033E3
:10583000DBB2072B06D80723012023409840C0B2D3
:10584000FBF740FAF8BD1E78A6422DD11C4B1888F4
:1058500000F0ADFCC72827D82C002034AE4215D06C
:1058600033002033DBB2072B06D8072301201E406C
:10587000B040C0B2FBF72EFAE3B2072B06D80723DD
:1058800001202B409840C0B2FBF71CFA3800E4B26C
:10589000FBF710FA072CD5D8072301201D40A8409C
:1058A000C0B2FBF717FACDE723002033DBB2072B9A
:1058B000C8D8072301201C40A040F1E7F4230020B2
:1058C000F2230020204B13B5C0180C00062833D853
:1058D000FAF78EFC141A040E20262C0026230093BF
:1058E000BB331A0019492000FFF792FF002016BDB4
:1058F00027230093BE331A001549F4E72623E0223C
:1059000000931449BB33EEE72723E42200931249A6
:10591000BE33E8E72623E22200931049BB33E2E7D7
:105920002723E62200930E49BE33DCE72823E52235
:1059300000930C49273BD6E74B79002B02D000227D
:10594000094B1A700120D2E7E883FFFF1A7C0000A0
:105950001B7C0000187C0000197C00001C7C0000EF
:105960001D7C00001E7C0000F4230020164B70B547
:10597000984204D0154B98421CD0012070BD4B7941
:10598000002B12D000F024F8FBF75EFC00F020F8AA
:10599000040000F023F8050000F026F829000200BA
:1059A0002000FBF74DFD0020E8E700F011F8FBF7C1
:1059B00057FCEBE74B79002B02D000F00FF8E3E740
:1059C00000F00CF8F3E7C046777C0000787C00001C
:1059D000014B18787047C0463C0D0020014B1878E9
:1059E0007047C0463B0D0020014B18787047C046F9
:1059F0003A0D002010B52420FCF732FD242801D0F8
:105A0000002010BD2520FCF72BFD1128F8D1153002
:105A1000FCF726FD163843425841F2E710B5FF2146
:105A2000041E00D0DB392420FCF775FDFF21002C7B
:105A300000D0EE392520FCF76EFDFF21002C00D0B0
:105A4000E9392620FCF767FD10BD704710B5272007
:105A5000FCF706FD10BD704710B50400FFF7FBFF13
:105A60002720E1B2FCF757FD10BD10B50020FFF76D
:105A7000D5FF0020FFF7F0FFFFF765F9FFF7F0F91A
:105A80000120FFF7CBFF10BD10B5FFF7DEFFFFF7DA
:105A9000DDFFFFF7E0FFFFF7ADFF002801D1FFF7C3
:105AA000E4FF10BD10B5FEF74FFD10BD03004879AF
:105AB00010B5002808D0054A9A187F2A03D8D8B212
:105AC000FFF7DCF9002010BD0120FCE70089FFFF93
:105AD000FF23037070470020704710B50400007862
